:100000000C9461000C947E000C947E000C947E0095
:100010000C947E000C947E000C947E000C947E0068
:100020000C947E000C947E000C947E000C947E0058
:100030000C947E000C947E000C947E000C947E0048
:100040000C948E010C947E000C947E000C947E0027
:100050000C947E000C947E000C947E000C947E0028
:100060000C947E000C947E00000000002400270009
:100070002A0000000000250028002B0000000000DE
:1000800023002600290004040404040404040202DA
:100090000202020203030303030301020408102007
:1000A0004080010204081020010204081020000012
:1000B0000008000201000003040700000000000027
:1000C000000011241FBECFEFD8E0DEBFCDBF11E08E
:1000D000A0E0B1E0EAEEF5E002C005900D92A43098
:1000E000B107D9F721E0A4E0B1E001C01D92A2312F
:1000F000B207E1F70E94D8010C94F3020C940000BF
:10010000833081F028F4813099F08230A9F008958D
:100110008730A9F08830C9F08430B1F48091800034
:100120008F7D03C0809180008F7780938000089539
:1001300084B58F7784BD089584B58F7DFBCF809182
:10014000B0008F778093B00008958091B0008F7DCC
:10015000F9CFCF93DF93282F30E0F901E255FF4F1D
:100160008491F901E656FF4FD491F901EA57FF4F08
:10017000C491CC23A1F081110E948000EC2FF0E00B
:10018000EE0FFF1FE458FF4FA591B491EC91ED23C2
:1001900081E090E009F480E0DF91CF91089580E064
:1001A00090E0FACF1F93CF93DF93282F30E0F9012F
:1001B000E255FF4F8491F901E656FF4FD491F901C2
:1001C000EA57FF4FC491CC23A9F0162F81110E944A
:1001D0008000EC2FF0E0EE0FFF1FEE58FF4FA591CF
:1001E000B4918FB7F894EC91111108C0D095DE232B
:1001F000DC938FBFDF91CF911F910895DE2BF8CF55
:10020000CF93DF9390E0FC01E656FF4F24918A578D
:100210009F4FFC0184918823D1F090E0880F991FB3
:10022000FC01E859FF4FA591B491FC01EE58FF4F36
:10023000C591D49161110EC09FB7F8948C91E22FB3
:10024000E0958E238C932881E223E8839FBFDF9182
:10025000CF9108958FB7F894EC91E22BEC938FBF78
:10026000F6CF1F93CF93DF93182FEB0161E00E942D
:100270000001209739F460E0812FDF91CF911F9129
:100280000C94D200CF3FD10511F461E0F5CFE12FFE
:10029000F0E0E255FF4FE491E33031F140F4E1301A
:1002A000B1F0E230E1F0C038D1057CF7E4CFE730BF
:1002B00029F1E83059F1E430B1F780918000806293
:1002C00080938000D0938B00C0938A0004C084B5D3
:1002D000806884BDC7BDDF91CF911F91089584B51B
:1002E000806284BDC8BDF7CF809180008068809314
:1002F0008000D0938900C0938800EDCF8091B0003A
:1003000080688093B000C093B300E5CF8091B000C7
:1003100080628093B000C093B400DDCF1F920F9233
:100320000FB60F9211242F933F938F939F93AF9308
:10033000BF9380910E0190910F01A0911001B09197
:10034000110130910D0123E0230F2D3758F501964F
:10035000A11DB11D20930D0180930E0190930F01FB
:10036000A0931001B09311018091090190910A01AD
:10037000A0910B01B0910C010196A11DB11D8093BC
:10038000090190930A01A0930B01B0930C01BF9156
:10039000AF919F918F913F912F910F900FBE0F9032
:1003A0001F90189526E8230F0296A11DB11DD2CFEC
:1003B000789484B5826084BD84B5816084BD85B540
:1003C000826085BD85B5816085BD80916E0081604C
:1003D00080936E00109281008091810082608093F2
:1003E00081008091810081608093810080918000F4
:1003F0008160809380008091B10084608093B1001F
:100400008091B00081608093B00080917A00846018
:1004100080937A0080917A00826080937A00809144
:100420007A00816080937A0080917A00806880935E
:100430007A001092C10060E088E00E94000160E054
:1004400089E00E94000160E08AE00E94000160E013
:100450008BE00E94000161E085E00E94000161E004
:1004600083E00E94000101E0C0E0D0E011E088E0FC
:100470000E94A900019709F0AAC04091040180914F
:10048000020190910301442321F0382F292F009776
:1004900021F430910001209101013093000120935B
:1004A0000101411105C0892B09F08EC0832F922FC5
:1004B00090930301809302011093040189E00E944C
:1004C000A900019709F086C02091050180910001E3
:1004D00090910101211106C0863F910514F085EF2E
:1004E00090E00A96909301018093000180910201AF
:1004F00090910301211108C0009731F0863F9105CA
:1005000014F085EF90E00A96909303018093020126
:10051000109305018AE00E94A900019709F05DC0CF
:10052000209106018091000190910101211106C0E6
:100530008A30910514F48AE090E00A9790930101C3
:10054000809300018091020190910301211108C064
:10055000009731F08A30910514F48AE090E00A9710
:100560009093030180930201109306018BE00E9497
:10057000A9000197A9F580910801909107019111B7
:1005800001C080278093080110930701F0900801B3
:100590006091020170910301F11002C070E060E00F
:1005A00083E00E9431016091020170910301FF20FC
:1005B00011F070E060E085E00E943101209709F4BD
:1005C00056CF0E94000053CF90E080E071CF109290
:1005D000040174CF109205019DCF10920601C6CF81
:0A05E00010920701D3CFF894FFCF6B
:0405EA00FF00FF000F
:00000001FF
