:100000000C9461000C947E000C947E000C947E0095
:100010000C947E000C947E000C947E000C947E0068
:100020000C947E000C947E000C947E000C947E0058
:100030000C947E000C947E000C947E000C947E0048
:100040000C9456010C947E000C947E000C947E005F
:100050000C947E000C947E000C947E000C947E0028
:100060000C947E000C947E00000000002400270009
:100070002A0000000000250028002B0000000000DE
:1000800023002600290004040404040404040202DA
:100090000202020203030303030301020408102007
:1000A0004080010204081020010204081020000012
:1000B0000008000201000003040700000000000027
:1000C000000011241FBECFEFD8E0DEBFCDBF11E08E
:1000D000A0E0B1E0E0E1F6E002C005900D92A430AE
:1000E000B107D9F721E0A4E0B1E001C01D92A13130
:1000F000B207E1F70E94A0010C9406030C940000E3
:10010000833081F028F4813099F08230A9F008958D
:100110008730A9F08830C9F08430B1F48091800034
:100120008F7D03C0809180008F7780938000089539
:1001300084B58F7784BD089584B58F7DFBCF809182
:10014000B0008F778093B00008958091B0008F7DCC
:10015000F9CFCF93DF93282F30E0F901E255FF4F1D
:100160008491F901E656FF4FD491F901EA57FF4F08
:10017000C491CC23A1F081110E948000EC2FF0E00B
:10018000EE0FFF1FE458FF4FA591B491EC91ED23C2
:1001900081E090E009F480E0DF91CF91089580E064
:1001A00090E0FACF1F93CF93DF93282F30E0F9012F
:1001B000E255FF4F8491F901E656FF4FD491F901C2
:1001C000EA57FF4FC491CC23A9F0162F81110E944A
:1001D0008000EC2FF0E0EE0FFF1FEE58FF4FA591CF
:1001E000B4918FB7F894EC91111108C0D095DE232B
:1001F000DC938FBFDF91CF911F910895DE2BF8CF55
:10020000CF93DF9390E0FC01E656FF4F24918A578D
:100210009F4FFC0184918823D1F090E0880F991FB3
:10022000FC01E859FF4FA591B491FC01EE58FF4F36
:10023000C591D49161110EC09FB7F8948C91E22FB3
:10024000E0958E238C932881E223E8839FBFDF9182
:10025000CF9108958FB7F894EC91E22BEC938FBF78
:10026000F6CF3FB7F8948091090190910A01A091CF
:100270000B01B0910C0126B5A89B05C02F3F19F0CA
:100280000196A11DB11D3FBFBA2FA92F982F882716
:10029000BC01CD01620F711D811D911D42E0660FF1
:1002A000771F881F991F4A95D1F708951F920F92C3
:1002B0000FB60F9211242F933F938F939F93AF9379
:1002C000BF938091050190910601A0910701B09123
:1002D00008013091040123E0230F2D3758F50196D2
:1002E000A11DB11D20930401809305019093060187
:1002F000A0930701B09308018091090190910A0130
:10030000A0910B01B0910C010196A11DB11D80932C
:10031000090190930A01A0930B01B0930C01BF91C6
:10032000AF919F918F913F912F910F900FBE0F90A2
:100330001F90189526E8230F0296A11DB11DD2CF5C
:10034000789484B5826084BD84B5816084BD85B5B0
:10035000826085BD85B5816085BD80916E008160BC
:1003600080936E0010928100809181008260809362
:100370008100809181008160809381008091800064
:100380008160809380008091B10084608093B1008F
:100390008091B00081608093B00080917A00846089
:1003A00080937A0080917A00826080937A008091B5
:1003B0007A00816080937A0080917A0080688093CF
:1003C0007A001092C10061E084E00E94000161E0C7
:1003D00085E00E94000161E086E00E94000161E08A
:1003E00087E00E94000160E08DE00E94000160E073
:1003F0008CE00E94000160E08BE00E940001C2E0FE
:10040000D0E070E0872E70E0972E3324339408E01C
:1004100010E0AA24A394B12C8DE00E94A9000197BA
:1004200009F0B8C080910D0190910201811101C0C5
:1004300091E090930201811180911001809310014D
:1004400030920D018CE00E94A900019709F0A5C02F
:1004500080910E0190910201811101C090E0909372
:1004600002018111809110018093100130920E01E0
:100470008BE00E94A900019709F094C080910F01C0
:10048000882309F48DC0809110018093100130926F
:100490000F01209110018091000190910101309194
:1004A0000201332309F481C095958795222309F42D
:1004B00080C08091000190910101892B21F410935B
:1004C000010100930001809100019091010140978A
:1004D00024F0B0920101A092000121112FC0E09000
:1004E0000001F0900101C701BE010E94DE02682FE9
:1004F00084E00E94D200C70195958795BE010E94B5
:10050000DE02682F85E00E94D200C701959587958D
:1005100095958795BE010E94DE02682F86E00E94B5
:10052000D200C70143E0959587954A95E1F7BE0152
:100530000E94DE02682F87E00E94D2000E943101F3
:100540002B013C018CE2C82EDD24D394E12CF12C4C
:100550000E9431016419750986099709683E734044
:1005600081059105A8F321E0C21AD108E108F1083C
:1005700088EE480E83E0581E611C711CC114D10422
:10058000E104F10429F78114910409F445CF0E9494
:10059000000042CF10920D0155CF10920E0168CF8E
:1005A00081E073CF10920F0174CF211182CF880F99
:1005B000991F90930101809300017BCF97FB072E39
:1005C00016F4009407D077FD09D00E94F20207FCD0
:1005D00005D03EF4909581959F4F08957095619553
:1005E0007F4F0895AA1BBB1B51E107C0AA1FBB1F69
:1005F000A617B70710F0A61BB70B881F991F5A95AF
:10060000A9F780959095BC01CD010895F894FFCF8E
:0406100008000100DD
:00000001FF
