:100000000C9462000C948A000C948A000C948A0070
:100010000C948A000C948A000C948A000C948A0038
:100020000C948A000C948A000C948A000C94680347
:100030000C948A000C948A000C948A000C948A0018
:100040000C94C6020C948A000C9436030C94100392
:100050000C948A000C948A000C948A000C948A00F8
:100060000C948A000C948A000000000024002700F1
:100070002A0000000000250028002B0000000000DE
:1000800023002600290004040404040404040202DA
:100090000202020203030303030301020408102007
:1000A0004080010204081020010204081020000012
:1000B0000008000201000003040700000000000027
:1000C0000000240411241FBECFEFD8E0DEBFCDBF57
:1000D00011E0A0E0B1E0E0E3FEE002C005900D9287
:1000E000AE31B107D9F721E0AEE1B1E001C01D9218
:1000F000AF3EB207E1F710E0C2E6D0E004C02197BE
:10010000FE010E941007C136D107C9F70E94810481
:100110000C9416070C940000CF92DF92EF92FF929E
:10012000DC01A03282E0B807D4F5A53BB10514F09C
:10013000A4EBB0E04091ED0128E830E0241B310948
:1001400047FD3395220F331F220F331F6901330FF1
:10015000EE08FF084091EE0128E532E0241B31094A
:1001600047FD3395220F331F220F331F032E000C40
:10017000440B550B2C193D094E095F09B7FF02C00E
:10018000B0E0A0E00E94D70524EB30E040E050E072
:100190000E94AD05C20ED31EE41EF51ED601E091ED
:1001A000EC01EC3080F52091ED0188E890E0821BB5
:1001B000910927FD9395880F991F880F991FA817FC
:1001C000B90784F02091EE0188E592E0821B910945
:1001D00027FD9395880F991F880F991FA817B907B6
:1001E0000CF4CD010297880F991F4FB7F8942E2F6A
:1001F00030E0F901EE0FFF1FE20FF31FE953FE4F4E
:10020000928381834FBFFF90EF90DF90CF9008954E
:10021000FC01538D448D252F30E0842F90E0821B0C
:10022000930B541710F0CF96089501970895FC0191
:10023000918D828D981761F0A28DAE0FBF2FB11DE9
:100240005D968C91928D9F5F9F73928F90E0089541
:100250008FEF9FEF0895FC01918D828D981731F0FB
:10026000828DE80FF11D858D90E008958FEF9FEF4F
:100270000895FC01918D228D892F90E0805C9F4F25
:10028000821B91098F7399270895FC01A48DA80FF3
:10029000B92FB11DA35ABF4F2C91848D90E00196C8
:1002A0008F739927848FA689B7892C93A089B189E8
:1002B0008C91837080648C93938D848D981306C089
:1002C0000288F389E02D80818F7D80830895EF92ED
:1002D000FF920F931F93CF93DF93EC0181E0888F00
:1002E0009B8D8C8D98131AC0E889F989808185FFD0
:1002F00015C09FB7F894EE89FF896083E889F98972
:1003000080818370806480839FBF81E090E0DF9173
:10031000CF911F910F91FF90EF900895F62E0B8DC6
:1003200010E00F5F1F4F0F731127E02E8C8D8E1181
:100330000CC00FB607FCFACFE889F989808185FFE8
:10034000F5CFCE010E944501F1CFEB8DEC0FFD2FD3
:10035000F11DE35AFF4FF0829FB7F8940B8FEA89A3
:10036000FB8980818062CFCFCF93DF93EC01888DB2
:100370008823B9F0AA89BB89E889F9898C9185FD20
:1003800003C0808186FD0DC00FB607FCF7CF8C91AE
:1003900085FFF2CF808185FFEDCFCE010E94450120
:1003A000E9CFDF91CF9108958AE291E00E9439016F
:1003B00021E0892B09F420E0822F089580E090E06D
:1003C000892B29F00E94D40181110C94000008951A
:1003D000AF92BF92CF92DF92EF92FF920F931F9353
:1003E000CF93DF936C017B018B01040F151FEB0191
:1003F0005E01AE18BF08C017D10759F06991D60148
:10040000ED91FC910190F081E02DC6010995892BB9
:1004100079F7C501DF91CF911F910F91FF90EF9078
:10042000DF90CF90BF90AF900895833081F028F493
:10043000813099F08230A9F008958730A9F0883092
:10044000C9F08430B1F4809180008F7D03C0809129
:1004500080008F7780938000089584B58F7784BD66
:10046000089584B58F7DFBCF8091B0008F77809306
:10047000B00008958091B0008F7DF9CFCF93DF93C6
:10048000282F30E0F901E255FF4F8491F901E6563B
:10049000FF4FD491F901EA57FF4FC491CC23A1F04B
:1004A00081110E941502EC2FF0E0EE0FFF1FE458BF
:1004B000FF4FA591B491EC91ED2381E090E009F418
:1004C00080E0DF91CF91089580E090E0FACF1F9314
:1004D000CF93DF93282F30E0F901E255FF4F84914D
:1004E000F901E656FF4FD491F901EA57FF4FC49145
:1004F000CC23A9F0162F81110E941502EC2FF0E0F9
:10050000EE0FFF1FEE58FF4FA591B4918FB7F894EF
:10051000EC91111108C0D095DE23DC938FBFDF91E1
:10052000CF911F910895DE2BF8CFCF93DF9390E00A
:10053000FC01E656FF4F24918A579F4FFC0184919E
:100540008823D1F090E0880F991FFC01E859FF4FF4
:10055000A591B491FC01EE58FF4FC591D491611162
:100560000EC09FB7F8948C91E22FE0958E238C9368
:100570002881E223E8839FBFDF91CF9108958FB751
:10058000F894EC91E22BEC938FBFF6CF1F920F9271
:100590000FB60F9211242F933F938F939F93AF9396
:1005A000BF938091260190912701A0912801B091DD
:1005B00029013091250123E0230F2D3758F50196AD
:1005C000A11DB11D20932501809326019093270141
:1005D000A0932801B09329018091210190912201DB
:1005E000A0912301B09124010196A11DB11D80931A
:1005F000210190932201A0932301B0932401BF9184
:10060000AF919F918F913F912F910F900FBE0F90BF
:100610001F90189526E8230F0296A11DB11DD2CF79
:100620001F920F920FB60F9211242F933F934F9367
:100630005F936F937F938F939F93AF93BF93EF934A
:10064000FF938AE291E00E944501FF91EF91BF91F3
:10065000AF919F918F917F916F915F914F913F915A
:100660002F910F900FBE0F901F9018951F920F9211
:100670000FB60F9211242F938F939F93EF93FF93B5
:10068000E0913A01F0913B018081E0914001F091CD
:10069000410182FD1BC09081809143018F5F8F7368
:1006A00020914401821741F0E0914301F0E0E65DC2
:1006B000FE4F958F80934301FF91EF919F918F9112
:1006C0002F910F900FBE0F901F9018958081F4CF3F
:1006D0001F920F920FB60F9211242F933F934F93B7
:1006E0005F936F937F938F939F93AF93BF93CF93BA
:1006F000DF93EF93FF9380911E01C091EB01D0E057
:1007000087FF24C0109285001092840080911E0102
:100710008F5F80931E0180911E01082E000C990BA3
:100720008C179D0724F480911E018C30C4F18091B8
:10073000840090918500049680349C4908F47AC026
:100740008091840090918500049676C080911E016E
:10075000082E000C990B8C179D07C4F6E0911E0122
:100760008E2FEE0F990BFC01EE0FFF1FE80FF91F04
:10077000E953FE4F808186FFC9CFE0911E018E2F85
:10078000EE0F990BFC01EE0FFF1FE80FF91FE95365
:10079000FE4F808160E08F730E946702B7CF209187
:1007A000840030918500E0911E018E2FEE0F990B91
:1007B000FC01EE0FFF1FE80FF91FE953FE4F818187
:1007C0009281820F931F9093890080938800E0911B
:1007D0001E018E2FEE0F990BFC01EE0FFF1FE80F8D
:1007E000F91FE953FE4F808186FF11C0E0911E0181
:1007F0008E2FEE0F990BFC01EE0FFF1FE80FF91F74
:10080000E953FE4F808161E08F730E946702FF9180
:10081000EF91DF91CF91BF91AF919F918F917F9198
:100820006F915F914F913F912F910F900FBE0F905D
:100830001F90189580E49CE990938900809388002C
:100840008FEF80931E01E3CF10922D0110922C01A7
:1008500088EE93E0A0E0B0E080932E0190932F010A
:10086000A0933001B093310188E091E090932B0187
:1008700080932A0185EC90E09093370180933601B4
:1008800084EC90E0909339018093380180EC90E003
:1008900090933B0180933A0181EC90E090933D016D
:1008A00080933C0182EC90E090933F0180933E0165
:1008B00086EC90E0909341018093400110924301B7
:1008C0001092440110924501109246018091EB0173
:1008D0008C3098F491E0980F9093EB018093EC01A9
:1008E00090E0FC01EE0FFF1FE80FF91FE953FE4FE8
:1008F00088EB9BE09283818308958FEF8093EC01D6
:100900000895789484B5826084BD84B5816084BD87
:1009100085B5826085BD85B5816085BD80916E009D
:10092000816080936E0010928100809181008260CE
:10093000809381008091810081608093810080910B
:1009400080008160809380008091B10084608093FA
:10095000B1008091B00081608093B00080917A00F6
:10096000846080937A0080917A00826080937A001C
:1009700080917A00816080937A0080917A0080680B
:1009800080937A001092C1008091EC018C3008F0C5
:1009900051C061E086E00E9495028091EC01282F11
:1009A00030E0F901EE0FFF1FE20FF31FE953FE4F96
:1009B0009081907C966090831092ED011092EE01F0
:1009C0002CE0622F0E940407829FB001112430E0C6
:1009D00020E0AB01420F531FFA01EE0FFF1FE40F9F
:1009E000F51FE953FE4F908196FD16C02F5F3F4FD4
:1009F0002C30310571F781110FC01092800082E018
:100A0000809381001092850010928400B19A8091A9
:100A10006F00826080936F00E091EC018E2F90E078
:100A2000FC01EE0FFF1FE80FF91FE953FE4F808115
:100A30008064808360E08CE00E94950260E08DE03D
:100A40000E94950260910001709101018091020164
:100A5000909103010E947D06CB010E948C0000E072
:100A600010E0C1E08CE00E943E029C01019709F079
:100A700064C080911F01811160C043E050E066E1D5
:100A800071E08AE291E00E94E80142E050E06AE110
:100A900071E08AE291E00E94E80120E030E040E964
:100AA0005FE36091000170910101809102019091DA
:100AB00003010E941106609300017093010180936D
:100AC0000201909303010E947D06CB010E948C00DD
:100AD000C0931F018DE00E943E029C010197A9F581
:100AE00080912001811131C020E030E040E95FE3D6
:100AF00060910001709101018091020190910301C8
:100B00000E9410066093000170930101809302011E
:100B1000909303010E947D06CB010E948C00C0933C
:100B200020010115110509F49DCF0E94D4018823ED
:100B300009F498CF0E94000095CF91E02130310553
:100B400009F090E090931F01C5CF91E0213031056D
:100B500009F090E090932001E4CF052E97FB1EF45E
:100B600000940E94C40557FD07D00E94DF0507FCD2
:100B700003D04EF40C94C4055095409530952195C2
:100B80003F4F4F4F5F4F08959095809570956195B9
:100B90007F4F8F4F9F4F08950E940106A59F900D94
:100BA000B49F900DA49F800D911D11240895B7FF4F
:100BB0000C94CC050E94CC05821B930B0895A1E2F6
:100BC0001A2EAA1BBB1BFD010DC0AA1FBB1FEE1FC7
:100BD000FF1FA217B307E407F50720F0A21BB30B12
:100BE000E40BF50B661F771F881F991F1A9469F78E
:100BF00060957095809590959B01AC01BD01CF01EA
:100C00000895A29FB001B39FC001A39F700D811DE5
:100C10001124911DB29F700D811D1124911D089505
:100C20005058BB27AA270E9428060C94CA060E9487
:100C3000BC0638F00E94C30620F039F49F3F19F437
:100C400026F40C94B9060EF4E095E7FB0C94B30679
:100C5000E92F0E94DB0658F3BA176207730784076F
:100C6000950720F079F4A6F50C94FD060EF4E095B6
:100C70000B2EBA2FA02D0B01B90190010C01CA0156
:100C8000A0011124FF27591B99F0593F50F4503E01
:100C900068F11A16F040A22F232F342F4427585FF3
:100CA000F3CF469537952795A795F0405395C9F70B
:100CB0007EF41F16BA0B620B730B840BBAF09150C3
:100CC000A1F0FF0FBB1F661F771F881FC2F70EC062
:100CD000BA0F621F731F841F48F487957795679535
:100CE000B795F7959E3F08F0B0CF9395880F08F021
:100CF0009927EE0F9795879508950E94840668942A
:100D0000B1110C94FE0608950E94E30688F09F57E7
:100D100098F0B92F9927B751B0F0E1F0660F771F1F
:100D2000881F991F1AF0BA95C9F714C0B13091F015
:100D30000E94FD06B1E008950C94FD06672F782F00
:100D40008827B85F39F0B93FCCF3869577956795DA
:100D5000B395D9F73EF490958095709561957F4F46
:100D60008F4F9F4F089597F99F6780E870E060E08C
:100D700008959FEF80EC089500240A941616170634
:100D800018060906089500240A941216130614067C
:100D900005060895092E0394000C11F4882352F0DF
:100DA000BB0F40F4BF2B11F460FF04C06F5F7F4F97
:100DB0008F4F9F4F089557FD9058440F551F59F07E
:100DC0005F3F71F04795880F97FB991F61F09F3F38
:100DD00079F087950895121613061406551FF2CF61
:100DE0004695F1DF08C0161617061806991FF1CFB1
:100DF00086957105610508940895E894BB276627D8
:100E00007727CB0197F90895991B79E004C0991FC2
:100E1000961708F0961B881F7A95C9F78095089554
:100E2000EE0FFF1F0590F491E02D0994F894FFCF89
:100E30000000B442000000006701E8010801B401AD
:0E0E4000390117012B01494E43000D0A000035
:00000001FF
